{
  "_format": "hh-sol-artifact-1",
  "contractName": "CorePayroll",
  "sourceName": "contracts/CorePayroll.sol",
  "abi": [
    {
      "inputs": [
        {
          "internalType": "address",
          "name": "_taxVault",
          "type": "address"
        }
      ],
      "stateMutability": "nonpayable",
      "type": "constructor"
    },
    {
      "anonymous": false,
      "inputs": [
        {
          "indexed": false,
          "internalType": "uint256",
          "name": "amountRecovered",
          "type": "uint256"
        }
      ],
      "name": "EmergencyWithdrawal",
      "type": "event"
    },
    {
      "anonymous": false,
      "inputs": [
        {
          "indexed": true,
          "internalType": "address",
          "name": "employee",
          "type": "address"
        },
        {
          "indexed": false,
          "internalType": "uint256",
          "name": "rate",
          "type": "uint256"
        }
      ],
      "name": "StreamStarted",
      "type": "event"
    },
    {
      "anonymous": false,
      "inputs": [
        {
          "indexed": true,
          "internalType": "address",
          "name": "employee",
          "type": "address"
        }
      ],
      "name": "StreamStopped",
      "type": "event"
    },
    {
      "anonymous": false,
      "inputs": [
        {
          "indexed": false,
          "internalType": "uint256",
          "name": "amount",
          "type": "uint256"
        }
      ],
      "name": "TreasuryFunded",
      "type": "event"
    },
    {
      "anonymous": false,
      "inputs": [
        {
          "indexed": true,
          "internalType": "address",
          "name": "employee",
          "type": "address"
        },
        {
          "indexed": false,
          "internalType": "uint256",
          "name": "netAmount",
          "type": "uint256"
        },
        {
          "indexed": false,
          "internalType": "uint256",
          "name": "taxAmount",
          "type": "uint256"
        }
      ],
      "name": "Withdrawal",
      "type": "event"
    },
    {
      "inputs": [],
      "name": "TAX_RATE",
      "outputs": [
        {
          "internalType": "uint256",
          "name": "",
          "type": "uint256"
        }
      ],
      "stateMutability": "view",
      "type": "function"
    },
    {
      "inputs": [
        {
          "internalType": "address",
          "name": "_employee",
          "type": "address"
        }
      ],
      "name": "claimableAmount",
      "outputs": [
        {
          "internalType": "uint256",
          "name": "",
          "type": "uint256"
        }
      ],
      "stateMutability": "view",
      "type": "function"
    },
    {
      "inputs": [],
      "name": "emergencyWithdraw",
      "outputs": [],
      "stateMutability": "nonpayable",
      "type": "function"
    },
    {
      "inputs": [],
      "name": "employer",
      "outputs": [
        {
          "internalType": "address",
          "name": "",
          "type": "address"
        }
      ],
      "stateMutability": "view",
      "type": "function"
    },
    {
      "inputs": [],
      "name": "getTreasuryBalance",
      "outputs": [
        {
          "internalType": "uint256",
          "name": "",
          "type": "uint256"
        }
      ],
      "stateMutability": "view",
      "type": "function"
    },
    {
      "inputs": [
        {
          "internalType": "address",
          "name": "_employee",
          "type": "address"
        },
        {
          "internalType": "uint256",
          "name": "_ratePerSecond",
          "type": "uint256"
        }
      ],
      "name": "startStream",
      "outputs": [],
      "stateMutability": "nonpayable",
      "type": "function"
    },
    {
      "inputs": [
        {
          "internalType": "address",
          "name": "_employee",
          "type": "address"
        }
      ],
      "name": "stopStream",
      "outputs": [],
      "stateMutability": "nonpayable",
      "type": "function"
    },
    {
      "inputs": [
        {
          "internalType": "address",
          "name": "",
          "type": "address"
        }
      ],
      "name": "streams",
      "outputs": [
        {
          "internalType": "uint256",
          "name": "ratePerSecond",
          "type": "uint256"
        },
        {
          "internalType": "uint256",
          "name": "lastWithdrawTime",
          "type": "uint256"
        },
        {
          "internalType": "uint256",
          "name": "accruedBalance",
          "type": "uint256"
        },
        {
          "internalType": "bool",
          "name": "isActive",
          "type": "bool"
        }
      ],
      "stateMutability": "view",
      "type": "function"
    },
    {
      "inputs": [],
      "name": "taxVault",
      "outputs": [
        {
          "internalType": "address",
          "name": "",
          "type": "address"
        }
      ],
      "stateMutability": "view",
      "type": "function"
    },
    {
      "inputs": [],
      "name": "withdraw",
      "outputs": [],
      "stateMutability": "nonpayable",
      "type": "function"
    },
    {
      "stateMutability": "payable",
      "type": "receive"
    }
  ],
  "bytecode": "0x608060405234801561001057600080fd5b50604051610a84380380610a8483398101604081905261002f91610062565b60008054336001600160a01b031991821617909155600180549091166001600160a01b0392909216919091179055610092565b60006020828403121561007457600080fd5b81516001600160a01b038116811461008b57600080fd5b9392505050565b6109e3806100a16000396000f3fe6080604052600436106100955760003560e01c8063ae200e7911610059578063ae200e79146101af578063cf796644146101e7578063da17c51314610207578063db2e21bc14610227578063e2ad37b01461023c57600080fd5b80633ccfd60b146100d457806383699275146100eb57806383f170be14610159578063898850491461017c5780639b5655dc1461019c57600080fd5b366100cf576040513481527fef7aff843f3420b45d9d058ff62be0d87a95132dea4a67b18925283ba05647dc9060200160405180910390a1005b600080fd5b3480156100e057600080fd5b506100e961025c565b005b3480156100f757600080fd5b506101326101063660046108b6565b600260208190526000918252604090912080546001820154928201546003909201549092919060ff1684565b60408051948552602085019390935291830152151560608201526080015b60405180910390f35b34801561016557600080fd5b5061016e600a81565b604051908152602001610150565b34801561018857600080fd5b5061016e6101973660046108b6565b6104c0565b3480156101a857600080fd5b504761016e565b3480156101bb57600080fd5b506000546101cf906001600160a01b031681565b6040516001600160a01b039091168152602001610150565b3480156101f357600080fd5b506100e96102023660046108b6565b61054b565b34801561021357600080fd5b506100e96102223660046108d1565b61065f565b34801561023357600080fd5b506100e9610748565b34801561024857600080fd5b506001546101cf906001600160a01b031681565b6000610267336104c0565b9050600081116102b45760405162461bcd60e51b8152602060048201526013602482015272139bc8199d5b991cc819585c9b9959081e595d606a1b60448201526064015b60405180910390fd5b804710156103045760405162461bcd60e51b815260206004820152601b60248201527f547265617375727920656d707479202d20436f6e74616374204852000000000060448201526064016102ab565b336000908152600260208190526040822042600182015590810182905590606461032f600a85610911565b610339919061092e565b905060006103478285610950565b6001546040519192506000916001600160a01b039091169084908381818185875af1925050503d8060008114610399576040519150601f19603f3d011682016040523d82523d6000602084013e61039e565b606091505b50509050806103e55760405162461bcd60e51b815260206004820152601360248201527215185e081d1c985b9cd9995c8819985a5b1959606a1b60448201526064016102ab565b604051600090339084908381818185875af1925050503d8060008114610427576040519150601f19603f3d011682016040523d82523d6000602084013e61042c565b606091505b505090508061047d5760405162461bcd60e51b815260206004820152601860248201527f456d706c6f796565207472616e73666572206661696c6564000000000000000060448201526064016102ab565b604080518481526020810186905233917fdf273cb619d95419a9cd0ec88123a0538c85064229baa6363788f743fff90deb910160405180910390a2505050505050565b6001600160a01b03811660009081526002602081815260408084208151608081018352815481526001820154938101939093529283015490820181905260039092015460ff1615801560608301529091906105445760008260200151426105279190610950565b83519091506105369082610911565b6105409083610963565b9150505b9392505050565b6000546001600160a01b031633146105755760405162461bcd60e51b81526004016102ab90610976565b6001600160a01b0381166000908152600260205260409020600381015460ff166105e15760405162461bcd60e51b815260206004820152601a60248201527f53747265616d20697320616c726561647920696e61637469766500000000000060448201526064016102ab565b60008160010154426105f39190610950565b82549091506106029082610911565b8260020160008282546106159190610963565b909155505060038201805460ff191690556040516001600160a01b038416907fc8df9387463bad688e6bee33a5517e1226baa5a9d109b77f5602f6cd46986f9b90600090a2505050565b6000546001600160a01b031633146106895760405162461bcd60e51b81526004016102ab90610976565b6001600160a01b0382166000908152600260205260409020600381015460ff16156106e95760008160010154426106c09190610950565b82549091506106cf9082610911565b8260020160008282546106e29190610963565b9091555050505b8181554260018083019190915560038201805460ff191690911790556040518281526001600160a01b038416907f3869caee07d456958a31c5ac828d9dfc10dc42094e29536a52ddd10cbd4204139060200160405180910390a2505050565b6000546001600160a01b031633146107725760405162461bcd60e51b81526004016102ab90610976565b47806107c05760405162461bcd60e51b815260206004820152601960248201527f547265617375727920697320616c726561647920656d7074790000000000000060448201526064016102ab565b600080546040516001600160a01b039091169083908381818185875af1925050503d806000811461080d576040519150601f19603f3d011682016040523d82523d6000602084013e610812565b606091505b50509050806108635760405162461bcd60e51b815260206004820152601b60248201527f456d657267656e6379207769746864726177616c206661696c6564000000000060448201526064016102ab565b6040518281527fcbba13897c2ac3f7fdb11e857b1a5a5c47f51e3fbeffa74d430f2b06177b45c09060200160405180910390a15050565b80356001600160a01b03811681146108b157600080fd5b919050565b6000602082840312156108c857600080fd5b6105448261089a565b600080604083850312156108e457600080fd5b6108ed8361089a565b946020939093013593505050565b634e487b7160e01b600052601160045260246000fd5b8082028115828204841417610928576109286108fb565b92915050565b60008261094b57634e487b7160e01b600052601260045260246000fd5b500490565b81810381811115610928576109286108fb565b80820180821115610928576109286108fb565b6020808252601c908201527f4f6e6c792048522f456d706c6f7965722063616e20646f20746869730000000060408201526060019056fea26469706673582212204c3c16788b193efd912ff1333ccbbde0a1981449b27f04425a927163560d80c364736f6c63430008140033",
  "linkReferences": {},
  "deployedLinkReferences": {}
}